{
  "contractName": "FitnessContract",
  "abi": [
    {
      "inputs": [],
      "stateMutability": "nonpayable",
      "type": "constructor"
    },
    {
      "inputs": [
        {
          "internalType": "uint256",
          "name": "",
          "type": "uint256"
        }
      ],
      "name": "challenges",
      "outputs": [
        {
          "internalType": "string",
          "name": "title",
          "type": "string"
        },
        {
          "internalType": "string",
          "name": "description",
          "type": "string"
        },
        {
          "internalType": "uint256",
          "name": "reward",
          "type": "uint256"
        },
        {
          "internalType": "bool",
          "name": "isActive",
          "type": "bool"
        }
      ],
      "stateMutability": "view",
      "type": "function",
      "constant": true
    },
    {
      "inputs": [],
      "name": "owner",
      "outputs": [
        {
          "internalType": "address",
          "name": "",
          "type": "address"
        }
      ],
      "stateMutability": "view",
      "type": "function",
      "constant": true
    },
    {
      "inputs": [
        {
          "internalType": "address",
          "name": "",
          "type": "address"
        }
      ],
      "name": "users",
      "outputs": [
        {
          "internalType": "string",
          "name": "name",
          "type": "string"
        },
        {
          "internalType": "uint256",
          "name": "totalWorkouts",
          "type": "uint256"
        },
        {
          "internalType": "uint256",
          "name": "totalHours",
          "type": "uint256"
        }
      ],
      "stateMutability": "view",
      "type": "function",
      "constant": true
    },
    {
      "inputs": [
        {
          "internalType": "string",
          "name": "_name",
          "type": "string"
        }
      ],
      "name": "createUser",
      "outputs": [],
      "stateMutability": "nonpayable",
      "type": "function"
    },
    {
      "inputs": [
        {
          "internalType": "string",
          "name": "_title",
          "type": "string"
        },
        {
          "internalType": "string",
          "name": "_description",
          "type": "string"
        },
        {
          "internalType": "uint256",
          "name": "_reward",
          "type": "uint256"
        }
      ],
      "name": "createChallenge",
      "outputs": [],
      "stateMutability": "nonpayable",
      "type": "function"
    },
    {
      "inputs": [
        {
          "internalType": "uint256",
          "name": "_challengeIndex",
          "type": "uint256"
        },
        {
          "internalType": "uint256",
          "name": "_hours",
          "type": "uint256"
        }
      ],
      "name": "completeChallenge",
      "outputs": [],
      "stateMutability": "nonpayable",
      "type": "function"
    }
  ],
  "bytecode": "0x608060405234801561001057600080fd5b50336000806101000a81548173ffffffffffffffffffffffffffffffffffffffff021916908373ffffffffffffffffffffffffffffffffffffffff160217905550610d68806100606000396000f3fe608060405234801561001057600080fd5b50600436106100625760003560e01c8063092888651461006757806313b7a45a14610083578063507ffba51461009f5780638da5cb5b146100bb5780638f1d3776146100d9578063a87430ba1461010c575b600080fd5b610081600480360381019061007c9190610821565b61013e565b005b61009d600480360381019061009891906108c9565b610286565b005b6100b960048036038101906100b491906107e0565b6103db565b005b6100c361044f565b6040516100d091906109eb565b60405180910390f35b6100f360048036038101906100ee91906108a0565b610473565b6040516101039493929190610a06565b60405180910390f35b610126600480360381019061012191906107b7565b6105d0565b60405161013593929190610a59565b60405180910390f35b60008054906101000a900473ffffffffffffffffffffffffffffffffffffffff1673ffffffffffffffffffffffffffffffffffffffff163373ffffffffffffffffffffffffffffffffffffffff16146101cc576040517f08c379a00000000000000000000000000000000000000000000000000000000081526004016101c390610ab7565b60405180910390fd5b600260405180608001604052808581526020018481526020018381526020016001151581525090806001815401808255809150506001900390600052602060002090600402016000909190919091506000820151816000019080519060200190610237929190610682565b506020820151816001019080519060200190610254929190610682565b506040820151816002015560608201518160030160006101000a81548160ff0219169083151502179055505050505050565b60011515600283815481106102c4577f4e487b7100000000000000000000000000000000000000000000000000000000600052603260045260246000fd5b906000526020600020906004020160030160009054906101000a900460ff16151514610325576040517f08c379a000000000000000000000000000000000000000000000000000000000815260040161031c90610a97565b60405180910390fd5b60018060003373ffffffffffffffffffffffffffffffffffffffff1673ffffffffffffffffffffffffffffffffffffffff16815260200190815260200160002060010160008282546103779190610b54565b9250508190555080600160003373ffffffffffffffffffffffffffffffffffffffff1673ffffffffffffffffffffffffffffffffffffffff16815260200190815260200160002060020160008282546103d09190610b54565b925050819055505050565b6000600160003373ffffffffffffffffffffffffffffffffffffffff1673ffffffffffffffffffffffffffffffffffffffff168152602001908152602001600020905081816000019080519060200190610436929190610682565b5060008160010181905550600081600201819055505050565b60008054906101000a900473ffffffffffffffffffffffffffffffffffffffff1681565b6002818154811061048357600080fd5b90600052602060002090600402016000915090508060000180546104a690610c34565b80601f01602080910402602001604051908101604052809291908181526020018280546104d290610c34565b801561051f5780601f106104f45761010080835404028352916020019161051f565b820191906000526020600020905b81548152906001019060200180831161050257829003601f168201915b50505050509080600101805461053490610c34565b80601f016020809104026020016040519081016040528092919081815260200182805461056090610c34565b80156105ad5780601f10610582576101008083540402835291602001916105ad565b820191906000526020600020905b81548152906001019060200180831161059057829003601f168201915b5050505050908060020154908060030160009054906101000a900460ff16905084565b60016020528060005260406000206000915090508060000180546105f390610c34565b80601f016020809104026020016040519081016040528092919081815260200182805461061f90610c34565b801561066c5780601f106106415761010080835404028352916020019161066c565b820191906000526020600020905b81548152906001019060200180831161064f57829003601f168201915b5050505050908060010154908060020154905083565b82805461068e90610c34565b90600052602060002090601f0160209004810192826106b057600085556106f7565b82601f106106c957805160ff19168380011785556106f7565b828001600101855582156106f7579182015b828111156106f65782518255916020019190600101906106db565b5b5090506107049190610708565b5090565b5b80821115610721576000816000905550600101610709565b5090565b600061073861073384610b08565b610ad7565b90508281526020810184848401111561075057600080fd5b61075b848285610bf2565b509392505050565b60008135905061077281610d04565b92915050565b600082601f83011261078957600080fd5b8135610799848260208601610725565b91505092915050565b6000813590506107b181610d1b565b92915050565b6000602082840312156107c957600080fd5b60006107d784828501610763565b91505092915050565b6000602082840312156107f257600080fd5b600082013567ffffffffffffffff81111561080c57600080fd5b61081884828501610778565b91505092915050565b60008060006060848603121561083657600080fd5b600084013567ffffffffffffffff81111561085057600080fd5b61085c86828701610778565b935050602084013567ffffffffffffffff81111561087957600080fd5b61088586828701610778565b9250506040610896868287016107a2565b9150509250925092565b6000602082840312156108b257600080fd5b60006108c0848285016107a2565b91505092915050565b600080604083850312156108dc57600080fd5b60006108ea858286016107a2565b92505060206108fb858286016107a2565b9150509250929050565b61090e81610baa565b82525050565b61091d81610bbc565b82525050565b600061092e82610b38565b6109388185610b43565b9350610948818560208601610c01565b61095181610cf3565b840191505092915050565b6000610969601783610b43565b91507f4368616c6c656e6765206973206e6f74206163746976650000000000000000006000830152602082019050919050565b60006109a9600e83610b43565b91507f4e6f7420617574686f72697a65640000000000000000000000000000000000006000830152602082019050919050565b6109e581610be8565b82525050565b6000602082019050610a006000830184610905565b92915050565b60006080820190508181036000830152610a208187610923565b90508181036020830152610a348186610923565b9050610a4360408301856109dc565b610a506060830184610914565b95945050505050565b60006060820190508181036000830152610a738186610923565b9050610a8260208301856109dc565b610a8f60408301846109dc565b949350505050565b60006020820190508181036000830152610ab08161095c565b9050919050565b60006020820190508181036000830152610ad08161099c565b9050919050565b6000604051905081810181811067ffffffffffffffff82111715610afe57610afd610cc4565b5b8060405250919050565b600067ffffffffffffffff821115610b2357610b22610cc4565b5b601f19601f8301169050602081019050919050565b600081519050919050565b600082825260208201905092915050565b6000610b5f82610be8565b9150610b6a83610be8565b9250827fffffffffffffffffffffffffffffffffffffffffffffffffffffffffffffffff03821115610b9f57610b9e610c66565b5b828201905092915050565b6000610bb582610bc8565b9050919050565b60008115159050919050565b600073ffffffffffffffffffffffffffffffffffffffff82169050919050565b6000819050919050565b82818337600083830152505050565b60005b83811015610c1f578082015181840152602081019050610c04565b83811115610c2e576000848401525b50505050565b60006002820490506001821680610c4c57607f821691505b60208210811415610c6057610c5f610c95565b5b50919050565b7f4e487b7100000000000000000000000000000000000000000000000000000000600052601160045260246000fd5b7f4e487b7100000000000000000000000000000000000000000000000000000000600052602260045260246000fd5b7f4e487b7100000000000000000000000000000000000000000000000000000000600052604160045260246000fd5b6000601f19601f8301169050919050565b610d0d81610baa565b8114610d1857600080fd5b50565b610d2481610be8565b8114610d2f57600080fd5b5056fea2646970667358221220cc66830837e87499356566a182716038224f7f4160fc9955d90f602d54db2eff64736f6c63430008000033",
  "immutableReferences": {},
  "source": "// SPDX-License-Identifier: MIT\n\npragma solidity ^0.8.0;\n\ncontract FitnessContract {\n    struct User {\n        string name;\n        uint256 totalWorkouts;\n        uint256 totalHours;\n    }\n    \n    struct Challenge {\n        string title;\n        string description;\n        uint256 reward;\n        bool isActive;\n    }\n    \n    address public owner;\n    mapping(address => User) public users;\n    Challenge[] public challenges;\n    \n    constructor() {\n        owner = msg.sender;\n    }\n    \n    modifier onlyOwner() {\n        require(msg.sender == owner, \"Not authorized\");\n        _;\n    }\n    \n    function createUser(string memory _name) public {\n        User storage user = users[msg.sender];\n        user.name = _name;\n        user.totalWorkouts = 0;\n        user.totalHours = 0;\n    }\n    \n    function createChallenge(string memory _title, string memory _description, uint256 _reward) public onlyOwner {\n        challenges.push(Challenge({\n            title: _title,\n            description: _description,\n            reward: _reward,\n            isActive: true\n        }));\n    }\n    \n    function completeChallenge(uint256 _challengeIndex, uint256 _hours) public {\n        require(challenges[_challengeIndex].isActive == true, \"Challenge is not active\");\n        users[msg.sender].totalWorkouts += 1;\n        users[msg.sender].totalHours += _hours;\n    }\n}\n",
  "sourcePath": "/Users/danielapassos/Desktop/decentralized-fitness/contracts/FitnessContract.sol",
  "compiler": {
    "name": "solc",
    "version": "0.8.0+commit.c7dfd78e.Emscripten.clang"
  },
  "schemaVersion": "3.4.16",
  "updatedAt": "2023-10-20T19:53:56.239Z",
  "networkType": "ethereum",
  "devdoc": {
    "kind": "dev",
    "methods": {},
    "version": 1
  },
  "userdoc": {
    "kind": "user",
    "methods": {},
    "version": 1
  }
}